{
  "contractName": "TravelDoc",
  "abi": [
    {
      "anonymous": false,
      "inputs": [
        {
          "indexed": false,
          "internalType": "bool",
          "name": "status",
          "type": "bool"
        }
      ],
      "name": "dladded",
      "type": "event"
    },
    {
      "anonymous": false,
      "inputs": [
        {
          "indexed": false,
          "internalType": "bool",
          "name": "status",
          "type": "bool"
        }
      ],
      "name": "insuranceadded",
      "type": "event"
    },
    {
      "anonymous": false,
      "inputs": [
        {
          "indexed": false,
          "internalType": "bool",
          "name": "status",
          "type": "bool"
        }
      ],
      "name": "pucadded",
      "type": "event"
    },
    {
      "anonymous": false,
      "inputs": [
        {
          "indexed": false,
          "internalType": "bool",
          "name": "status",
          "type": "bool"
        }
      ],
      "name": "rcadded",
      "type": "event"
    },
    {
      "inputs": [
        {
          "internalType": "uint256",
          "name": "",
          "type": "uint256"
        }
      ],
      "name": "verified",
      "outputs": [
        {
          "internalType": "bool",
          "name": "",
          "type": "bool"
        }
      ],
      "stateMutability": "view",
      "type": "function",
      "constant": true
    },
    {
      "inputs": [
        {
          "internalType": "string",
          "name": "name",
          "type": "string"
        },
        {
          "internalType": "string",
          "name": "dob",
          "type": "string"
        }
      ],
      "name": "registerUser",
      "outputs": [
        {
          "internalType": "uint256",
          "name": "id",
          "type": "uint256"
        }
      ],
      "stateMutability": "nonpayable",
      "type": "function"
    },
    {
      "inputs": [],
      "name": "testcontract",
      "outputs": [
        {
          "internalType": "string",
          "name": "",
          "type": "string"
        }
      ],
      "stateMutability": "pure",
      "type": "function",
      "constant": true
    },
    {
      "inputs": [],
      "name": "getId",
      "outputs": [
        {
          "internalType": "uint256",
          "name": "id",
          "type": "uint256"
        }
      ],
      "stateMutability": "view",
      "type": "function",
      "constant": true
    },
    {
      "inputs": [
        {
          "internalType": "string",
          "name": "_dochash",
          "type": "string"
        },
        {
          "internalType": "string",
          "name": "_id",
          "type": "string"
        },
        {
          "internalType": "string",
          "name": "_validity",
          "type": "string"
        },
        {
          "internalType": "string",
          "name": "_regDate",
          "type": "string"
        },
        {
          "internalType": "string",
          "name": "_chassisNo",
          "type": "string"
        },
        {
          "internalType": "string",
          "name": "_engineNo",
          "type": "string"
        },
        {
          "internalType": "string",
          "name": "_model",
          "type": "string"
        },
        {
          "internalType": "string",
          "name": "_seat",
          "type": "string"
        }
      ],
      "name": "add_rc",
      "outputs": [
        {
          "internalType": "bool",
          "name": "ok",
          "type": "bool"
        }
      ],
      "stateMutability": "nonpayable",
      "type": "function"
    },
    {
      "inputs": [
        {
          "internalType": "string",
          "name": "_dochash",
          "type": "string"
        },
        {
          "internalType": "string",
          "name": "_id",
          "type": "string"
        },
        {
          "internalType": "string",
          "name": "_validity",
          "type": "string"
        }
      ],
      "name": "add_driving",
      "outputs": [
        {
          "internalType": "bool",
          "name": "ok",
          "type": "bool"
        }
      ],
      "stateMutability": "nonpayable",
      "type": "function"
    },
    {
      "inputs": [
        {
          "internalType": "string",
          "name": "_dochash",
          "type": "string"
        },
        {
          "internalType": "string",
          "name": "_id",
          "type": "string"
        },
        {
          "internalType": "string",
          "name": "_validity",
          "type": "string"
        }
      ],
      "name": "add_puc",
      "outputs": [
        {
          "internalType": "bool",
          "name": "ok",
          "type": "bool"
        }
      ],
      "stateMutability": "nonpayable",
      "type": "function"
    },
    {
      "inputs": [
        {
          "internalType": "string",
          "name": "_dochash",
          "type": "string"
        },
        {
          "internalType": "string",
          "name": "_id",
          "type": "string"
        },
        {
          "internalType": "string",
          "name": "_validity",
          "type": "string"
        }
      ],
      "name": "add_insurance",
      "outputs": [
        {
          "internalType": "bool",
          "name": "ok",
          "type": "bool"
        }
      ],
      "stateMutability": "nonpayable",
      "type": "function"
    },
    {
      "inputs": [],
      "name": "setVerified",
      "outputs": [
        {
          "internalType": "bool",
          "name": "ok",
          "type": "bool"
        }
      ],
      "stateMutability": "nonpayable",
      "type": "function"
    },
    {
      "inputs": [],
      "name": "verify",
      "outputs": [
        {
          "internalType": "bool",
          "name": "ok",
          "type": "bool"
        }
      ],
      "stateMutability": "view",
      "type": "function",
      "constant": true
    },
    {
      "inputs": [
        {
          "internalType": "uint256",
          "name": "id",
          "type": "uint256"
        }
      ],
      "name": "get_user_details",
      "outputs": [
        {
          "internalType": "uint256",
          "name": "",
          "type": "uint256"
        },
        {
          "internalType": "string",
          "name": "",
          "type": "string"
        },
        {
          "internalType": "string",
          "name": "",
          "type": "string"
        }
      ],
      "stateMutability": "view",
      "type": "function",
      "constant": true
    },
    {
      "inputs": [
        {
          "internalType": "uint256",
          "name": "id",
          "type": "uint256"
        }
      ],
      "name": "get_rc_details",
      "outputs": [
        {
          "internalType": "string",
          "name": "",
          "type": "string"
        },
        {
          "internalType": "string",
          "name": "",
          "type": "string"
        },
        {
          "internalType": "string",
          "name": "",
          "type": "string"
        }
      ],
      "stateMutability": "view",
      "type": "function",
      "constant": true
    },
    {
      "inputs": [
        {
          "internalType": "uint256",
          "name": "id",
          "type": "uint256"
        }
      ],
      "name": "get_puc_details",
      "outputs": [
        {
          "internalType": "string",
          "name": "",
          "type": "string"
        },
        {
          "internalType": "string",
          "name": "",
          "type": "string"
        },
        {
          "internalType": "string",
          "name": "",
          "type": "string"
        }
      ],
      "stateMutability": "view",
      "type": "function",
      "constant": true
    },
    {
      "inputs": [
        {
          "internalType": "uint256",
          "name": "id",
          "type": "uint256"
        }
      ],
      "name": "get_insurance_details",
      "outputs": [
        {
          "internalType": "string",
          "name": "",
          "type": "string"
        },
        {
          "internalType": "string",
          "name": "",
          "type": "string"
        },
        {
          "internalType": "string",
          "name": "",
          "type": "string"
        }
      ],
      "stateMutability": "view",
      "type": "function",
      "constant": true
    },
    {
      "inputs": [
        {
          "internalType": "uint256",
          "name": "id",
          "type": "uint256"
        }
      ],
      "name": "get_dl_details",
      "outputs": [
        {
          "internalType": "string",
          "name": "",
          "type": "string"
        },
        {
          "internalType": "string",
          "name": "",
          "type": "string"
        },
        {
          "internalType": "string",
          "name": "",
          "type": "string"
        }
      ],
      "stateMutability": "view",
      "type": "function",
      "constant": true
    }
  ],
  "bytecode": "0x608060405234801561001057600080fd5b506129e3806100206000396000f3fe608060405234801561001057600080fd5b50600436106100f55760003560e01c80637348591e116100975780639e17f6ef116100665780639e17f6ef146112c95780639fc6c72f146112e9578063ebf3c2b1146114e8578063fc735e991461156b576100f5565b80637348591e146108d957806382925c4c14610dcc57806384d9433114610f4b5780639ca383ce146110ca576100f5565b806328bde9fa116100d357806328bde9fa146104235780634f9cfb871461053d5780635d1ca6311461073c57806367c441121461075a576100f5565b80631a9425c1146100fa5780631d2e4afd1461013e57806321d9b3c3146102a4575b600080fd5b6101266004803603602081101561011057600080fd5b810190808035906020019092919050505061158b565b60405180821515815260200191505060405180910390f35b61028e6004803603604081101561015457600080fd5b810190808035906020019064010000000081111561017157600080fd5b82018360208201111561018357600080fd5b803590602001918460018302840111640100000000831117156101a557600080fd5b91908080601f016020809104026020016040519081016040528093929190818152602001838380828437600081840152601f19601f8201169050808301925050505050505091929192908035906020019064010000000081111561020857600080fd5b82018360208201111561021a57600080fd5b8035906020019184600183028401116401000000008311171561023c57600080fd5b91908080601f016020809104026020016040519081016040528093929190818152602001838380828437600081840152601f19601f8201169050808301925050505050505091929192905050506115ab565b6040518082815260200191505060405180910390f35b6102d0600480360360208110156102ba57600080fd5b81019080803590602001909291905050506116b6565b60405180806020018060200180602001848103845287818151815260200191508051906020019080838360005b838110156103185780820151818401526020810190506102fd565b50505050905090810190601f1680156103455780820380516001836020036101000a031916815260200191505b50848103835286818151815260200191508051906020019080838360005b8381101561037e578082015181840152602081019050610363565b50505050905090810190601f1680156103ab5780820380516001836020036101000a031916815260200191505b50848103825285818151815260200191508051906020019080838360005b838110156103e45780820151818401526020810190506103c9565b50505050905090810190601f1680156104115780820380516001836020036101000a031916815260200191505b50965050505050505060405180910390f35b61044f6004803603602081101561043957600080fd5b81019080803590602001909291905050506118c0565b604051808481526020018060200180602001838103835285818151815260200191508051906020019080838360005b8381101561049957808201518184015260208101905061047e565b50505050905090810190601f1680156104c65780820380516001836020036101000a031916815260200191505b50838103825284818151815260200191508051906020019080838360005b838110156104ff5780820151818401526020810190506104e4565b50505050905090810190601f16801561052c5780820380516001836020036101000a031916815260200191505b509550505050505060405180910390f35b6107246004803603606081101561055357600080fd5b810190808035906020019064010000000081111561057057600080fd5b82018360208201111561058257600080fd5b803590602001918460018302840111640100000000831117156105a457600080fd5b91908080601f016020809104026020016040519081016040528093929190818152602001838380828437600081840152601f19601f8201169050808301925050505050505091929192908035906020019064010000000081111561060757600080fd5b82018360208201111561061957600080fd5b8035906020019184600183028401116401000000008311171561063b57600080fd5b91908080601f016020809104026020016040519081016040528093929190818152602001838380828437600081840152601f19601f8201169050808301925050505050505091929192908035906020019064010000000081111561069e57600080fd5b8201836020820111156106b057600080fd5b803590602001918460018302840111640100000000831117156106d257600080fd5b91908080601f016020809104026020016040519081016040528093929190818152602001838380828437600081840152601f19601f820116905080830192505050505050509192919290505050611a2f565b60405180821515815260200191505060405180910390f35b610744611b65565b6040518082815260200191505060405180910390f35b6107866004803603602081101561077057600080fd5b8101908080359060200190929190505050611bab565b60405180806020018060200180602001848103845287818151815260200191508051906020019080838360005b838110156107ce5780820151818401526020810190506107b3565b50505050905090810190601f1680156107fb5780820380516001836020036101000a031916815260200191505b50848103835286818151815260200191508051906020019080838360005b83811015610834578082015181840152602081019050610819565b50505050905090810190601f1680156108615780820380516001836020036101000a031916815260200191505b50848103825285818151815260200191508051906020019080838360005b8381101561089a57808201518184015260208101905061087f565b50505050905090810190601f1680156108c75780820380516001836020036101000a031916815260200191505b50965050505050505060405180910390f35b610db460048036036101008110156108f057600080fd5b810190808035906020019064010000000081111561090d57600080fd5b82018360208201111561091f57600080fd5b8035906020019184600183028401116401000000008311171561094157600080fd5b91908080601f016020809104026020016040519081016040528093929190818152602001838380828437600081840152601f19601f820116905080830192505050505050509192919290803590602001906401000000008111156109a457600080fd5b8201836020820111156109b657600080fd5b803590602001918460018302840111640100000000831117156109d857600080fd5b91908080601f016020809104026020016040519081016040528093929190818152602001838380828437600081840152601f19601f82011690508083019250505050505050919291929080359060200190640100000000811115610a3b57600080fd5b820183602082011115610a4d57600080fd5b80359060200191846001830284011164010000000083111715610a6f57600080fd5b91908080601f016020809104026020016040519081016040528093929190818152602001838380828437600081840152601f19601f82011690508083019250505050505050919291929080359060200190640100000000811115610ad257600080fd5b820183602082011115610ae457600080fd5b80359060200191846001830284011164010000000083111715610b0657600080fd5b91908080601f016020809104026020016040519081016040528093929190818152602001838380828437600081840152601f19601f82011690508083019250505050505050919291929080359060200190640100000000811115610b6957600080fd5b820183602082011115610b7b57600080fd5b80359060200191846001830284011164010000000083111715610b9d57600080fd5b91908080601f016020809104026020016040519081016040528093929190818152602001838380828437600081840152601f19601f82011690508083019250505050505050919291929080359060200190640100000000811115610c0057600080fd5b820183602082011115610c1257600080fd5b80359060200191846001830284011164010000000083111715610c3457600080fd5b91908080601f016020809104026020016040519081016040528093929190818152602001838380828437600081840152601f19601f82011690508083019250505050505050919291929080359060200190640100000000811115610c9757600080fd5b820183602082011115610ca957600080fd5b80359060200191846001830284011164010000000083111715610ccb57600080fd5b91908080601f016020809104026020016040519081016040528093929190818152602001838380828437600081840152601f19601f82011690508083019250505050505050919291929080359060200190640100000000811115610d2e57600080fd5b820183602082011115610d4057600080fd5b80359060200191846001830284011164010000000083111715610d6257600080fd5b91908080601f016020809104026020016040519081016040528093929190818152602001838380828437600081840152601f19601f820116905080830192505050505050509192919290505050611db5565b60405180821515815260200191505060405180910390f35b610df860048036036020811015610de257600080fd5b8101908080359060200190929190505050611fa1565b60405180806020018060200180602001848103845287818151815260200191508051906020019080838360005b83811015610e40578082015181840152602081019050610e25565b50505050905090810190601f168015610e6d5780820380516001836020036101000a031916815260200191505b50848103835286818151815260200191508051906020019080838360005b83811015610ea6578082015181840152602081019050610e8b565b50505050905090810190601f168015610ed35780820380516001836020036101000a031916815260200191505b50848103825285818151815260200191508051906020019080838360005b83811015610f0c578082015181840152602081019050610ef1565b50505050905090810190601f168015610f395780820380516001836020036101000a031916815260200191505b50965050505050505060405180910390f35b610f7760048036036020811015610f6157600080fd5b81019080803590602001909291905050506121ab565b60405180806020018060200180602001848103845287818151815260200191508051906020019080838360005b83811015610fbf578082015181840152602081019050610fa4565b50505050905090810190601f168015610fec5780820380516001836020036101000a031916815260200191505b50848103835286818151815260200191508051906020019080838360005b8381101561102557808201518184015260208101905061100a565b50505050905090810190601f1680156110525780820380516001836020036101000a031916815260200191505b50848103825285818151815260200191508051906020019080838360005b8381101561108b578082015181840152602081019050611070565b50505050905090810190601f1680156110b85780820380516001836020036101000a031916815260200191505b50965050505050505060405180910390f35b6112b1600480360360608110156110e057600080fd5b81019080803590602001906401000000008111156110fd57600080fd5b82018360208201111561110f57600080fd5b8035906020019184600183028401116401000000008311171561113157600080fd5b91908080601f016020809104026020016040519081016040528093929190818152602001838380828437600081840152601f19601f8201169050808301925050505050505091929192908035906020019064010000000081111561119457600080fd5b8201836020820111156111a657600080fd5b803590602001918460018302840111640100000000831117156111c857600080fd5b91908080601f016020809104026020016040519081016040528093929190818152602001838380828437600081840152601f19601f8201169050808301925050505050505091929192908035906020019064010000000081111561122b57600080fd5b82018360208201111561123d57600080fd5b8035906020019184600183028401116401000000008311171561125f57600080fd5b91908080601f016020809104026020016040519081016040528093929190818152602001838380828437600081840152601f19601f8201169050808301925050505050505091929192905050506123b5565b60405180821515815260200191505060405180910390f35b6112d16124eb565b60405180821515815260200191505060405180910390f35b6114d0600480360360608110156112ff57600080fd5b810190808035906020019064010000000081111561131c57600080fd5b82018360208201111561132e57600080fd5b8035906020019184600183028401116401000000008311171561135057600080fd5b91908080601f016020809104026020016040519081016040528093929190818152602001838380828437600081840152601f19601f820116905080830192505050505050509192919290803590602001906401000000008111156113b357600080fd5b8201836020820111156113c557600080fd5b803590602001918460018302840111640100000000831117156113e757600080fd5b91908080601f016020809104026020016040519081016040528093929190818152602001838380828437600081840152601f19601f8201169050808301925050505050505091929192908035906020019064010000000081111561144a57600080fd5b82018360208201111561145c57600080fd5b8035906020019184600183028401116401000000008311171561147e57600080fd5b91908080601f016020809104026020016040519081016040528093929190818152602001838380828437600081840152601f19601f820116905080830192505050505050509192919290505050612729565b60405180821515815260200191505060405180910390f35b6114f061285f565b6040518080602001828103825283818151815260200191508051906020019080838360005b83811015611530578082015181840152602081019050611515565b50505050905090810190601f16801561155d5780820380516001836020036101000a031916815260200191505b509250505060405180910390f35b61157361289c565b60405180821515815260200191505060405180910390f35b60066020528060005260406000206000915054906101000a900460ff1681565b60006007600081548092919060010191905055506007546000803373ffffffffffffffffffffffffffffffffffffffff1673ffffffffffffffffffffffffffffffffffffffff16815260200190815260200160002081905550604051806060016040528060075481526020018481526020018381525060056000600754815260200190815260200160002060008201518160000155602082015181600101908051906020019061165c929190612902565b506040820151816002019080519060200190611679929190612902565b50905050600060066000600754815260200190815260200160002060006101000a81548160ff021916908315150217905550600754905092915050565b60608060606000600360008681526020019081526020016000209050806000018160010182600201828054600181600116156101000203166002900480601f0160208091040260200160405190810160405280929190818152602001828054600181600116156101000203166002900480156117735780601f1061174857610100808354040283529160200191611773565b820191906000526020600020905b81548152906001019060200180831161175657829003601f168201915b50505050509250818054600181600116156101000203166002900480601f01602080910402602001604051908101604052809291908181526020018280546001816001161561010002031660029004801561180f5780601f106117e45761010080835404028352916020019161180f565b820191906000526020600020905b8154815290600101906020018083116117f257829003601f168201915b50505050509150808054600181600116156101000203166002900480601f0160208091040260200160405190810160405280929190818152602001828054600181600116156101000203166002900480156118ab5780601f10611880576101008083540402835291602001916118ab565b820191906000526020600020905b81548152906001019060200180831161188e57829003601f168201915b50505050509050935093509350509193909250565b6000606080600060056000868152602001908152602001600020905080600001548160010182600201818054600181600116156101000203166002900480601f01602080910402602001604051908101604052809291908181526020018280546001816001161561010002031660029004801561197e5780601f106119535761010080835404028352916020019161197e565b820191906000526020600020905b81548152906001019060200180831161196157829003601f168201915b50505050509150808054600181600116156101000203166002900480601f016020809104026020016040519081016040528092919081815260200182805460018160011615610100020316600290048015611a1a5780601f106119ef57610100808354040283529160200191611a1a565b820191906000526020600020905b8154815290600101906020018083116119fd57829003601f168201915b50505050509050935093509350509193909250565b6000604051806080016040528085815260200184815260200183815260200160011515815250600360008060003373ffffffffffffffffffffffffffffffffffffffff1673ffffffffffffffffffffffffffffffffffffffff1681526020019081526020016000205481526020019081526020016000206000820151816000019080519060200190611ac2929190612902565b506020820151816001019080519060200190611adf929190612902565b506040820151816002019080519060200190611afc929190612902565b5060608201518160030160006101000a81548160ff0219169083151502179055509050507f4f471018989c134aeedb587587870e84c06cba184b77576d63ef95aa853b1ec8600160405180821515815260200191505060405180910390a1600190509392505050565b60008060003373ffffffffffffffffffffffffffffffffffffffff1673ffffffffffffffffffffffffffffffffffffffff16815260200190815260200160002054905090565b60608060606000600260008681526020019081526020016000209050806000018160010182600201828054600181600116156101000203166002900480601f016020809104026020016040519081016040528092919081815260200182805460018160011615610100020316600290048015611c685780601f10611c3d57610100808354040283529160200191611c68565b820191906000526020600020905b815481529060010190602001808311611c4b57829003601f168201915b50505050509250818054600181600116156101000203166002900480601f016020809104026020016040519081016040528092919081815260200182805460018160011615610100020316600290048015611d045780601f10611cd957610100808354040283529160200191611d04565b820191906000526020600020905b815481529060010190602001808311611ce757829003601f168201915b50505050509150808054600181600116156101000203166002900480601f016020809104026020016040519081016040528092919081815260200182805460018160011615610100020316600290048015611da05780601f10611d7557610100808354040283529160200191611da0565b820191906000526020600020905b815481529060010190602001808311611d8357829003601f168201915b50505050509050935093509350509193909250565b60006040518061012001604052808a815260200189815260200188815260200187815260200186815260200185815260200184815260200183815260200160011515815250600260008060003373ffffffffffffffffffffffffffffffffffffffff1673ffffffffffffffffffffffffffffffffffffffff1681526020019081526020016000205481526020019081526020016000206000820151816000019080519060200190611e67929190612902565b506020820151816001019080519060200190611e84929190612902565b506040820151816002019080519060200190611ea1929190612902565b506060820151816003019080519060200190611ebe929190612902565b506080820151816004019080519060200190611edb929190612902565b5060a0820151816005019080519060200190611ef8929190612902565b5060c0820151816006019080519060200190611f15929190612902565b5060e0820151816007019080519060200190611f32929190612902565b506101008201518160080160006101000a81548160ff0219169083151502179055509050507f25c63020ecdc65d12c61d5634b8a8261b9a1eccf7c2b49adab0d4219b4212a72600160405180821515815260200191505060405180910390a16001905098975050505050505050565b60608060606000600460008681526020019081526020016000209050806000018160010182600201828054600181600116156101000203166002900480601f01602080910402602001604051908101604052809291908181526020018280546001816001161561010002031660029004801561205e5780601f106120335761010080835404028352916020019161205e565b820191906000526020600020905b81548152906001019060200180831161204157829003601f168201915b50505050509250818054600181600116156101000203166002900480601f0160208091040260200160405190810160405280929190818152602001828054600181600116156101000203166002900480156120fa5780601f106120cf576101008083540402835291602001916120fa565b820191906000526020600020905b8154815290600101906020018083116120dd57829003601f168201915b50505050509150808054600181600116156101000203166002900480601f0160208091040260200160405190810160405280929190818152602001828054600181600116156101000203166002900480156121965780601f1061216b57610100808354040283529160200191612196565b820191906000526020600020905b81548152906001019060200180831161217957829003601f168201915b50505050509050935093509350509193909250565b60608060606000600160008681526020019081526020016000209050806000018160010182600201828054600181600116156101000203166002900480601f0160208091040260200160405190810160405280929190818152602001828054600181600116156101000203166002900480156122685780601f1061223d57610100808354040283529160200191612268565b820191906000526020600020905b81548152906001019060200180831161224b57829003601f168201915b50505050509250818054600181600116156101000203166002900480601f0160208091040260200160405190810160405280929190818152602001828054600181600116156101000203166002900480156123045780601f106122d957610100808354040283529160200191612304565b820191906000526020600020905b8154815290600101906020018083116122e757829003601f168201915b50505050509150808054600181600116156101000203166002900480601f0160208091040260200160405190810160405280929190818152602001828054600181600116156101000203166002900480156123a05780601f10612375576101008083540402835291602001916123a0565b820191906000526020600020905b81548152906001019060200180831161238357829003601f168201915b50505050509050935093509350509193909250565b6000604051806080016040528085815260200184815260200183815260200160011515815250600160008060003373ffffffffffffffffffffffffffffffffffffffff1673ffffffffffffffffffffffffffffffffffffffff1681526020019081526020016000205481526020019081526020016000206000820151816000019080519060200190612448929190612902565b506020820151816001019080519060200190612465929190612902565b506040820151816002019080519060200190612482929190612902565b5060608201518160030160006101000a81548160ff0219169083151502179055509050507fa7c511ecee447bcf662f180128f6644950ff412edbd193b97f6f5740e9ec9c58600160405180821515815260200191505060405180910390a1600190509392505050565b600060011515600160008060003373ffffffffffffffffffffffffffffffffffffffff1673ffffffffffffffffffffffffffffffffffffffff16815260200190815260200160002054815260200190815260200160002060030160009054906101000a900460ff1615151480156125c7575060011515600360008060003373ffffffffffffffffffffffffffffffffffffffff1673ffffffffffffffffffffffffffffffffffffffff16815260200190815260200160002054815260200190815260200160002060030160009054906101000a900460ff161515145b8015612638575060011515600260008060003373ffffffffffffffffffffffffffffffffffffffff1673ffffffffffffffffffffffffffffffffffffffff16815260200190815260200160002054815260200190815260200160002060080160009054906101000a900460ff161515145b80156126a9575060011515600460008060003373ffffffffffffffffffffffffffffffffffffffff1673ffffffffffffffffffffffffffffffffffffffff16815260200190815260200160002054815260200190815260200160002060030160009054906101000a900460ff161515145b15612721576001600660008060003373ffffffffffffffffffffffffffffffffffffffff1673ffffffffffffffffffffffffffffffffffffffff16815260200190815260200160002054815260200190815260200160002060006101000a81548160ff02191690831515021790555060019050612726565b600090505b90565b6000604051806080016040528085815260200184815260200183815260200160011515815250600460008060003373ffffffffffffffffffffffffffffffffffffffff1673ffffffffffffffffffffffffffffffffffffffff16815260200190815260200160002054815260200190815260200160002060008201518160000190805190602001906127bc929190612902565b5060208201518160010190805190602001906127d9929190612902565b5060408201518160020190805190602001906127f6929190612902565b5060608201518160030160006101000a81548160ff0219169083151502179055509050507f278a45880061ad7dfd2ec70628ffbc3d1f95b0c3f09be470e35f46ce46ed2142600160405180821515815260200191505060405180910390a1600190509392505050565b60606040518060400160405280601281526020017f436f6e747261637420436f6e6e65637465640000000000000000000000000000815250905090565b6000600660008060003373ffffffffffffffffffffffffffffffffffffffff1673ffffffffffffffffffffffffffffffffffffffff16815260200190815260200160002054815260200190815260200160002060009054906101000a900460ff16905090565b828054600181600116156101000203166002900490600052602060002090601f016020900481019282612938576000855561297f565b82601f1061295157805160ff191683800117855561297f565b8280016001018555821561297f579182015b8281111561297e578251825591602001919060010190612963565b5b50905061298c9190612990565b5090565b5b808211156129a9576000816000905550600101612991565b509056fea26469706673582212201d5aaea050a811963a5b5f450222c122fb6aa15adfb2a8f13e801d95995e155864736f6c63430007040033",
  "immutableReferences": {},
  "source": "// SPDX-License-Identifier: MIT\r\n// pragma solidity >=0.5.1;\r\npragma solidity >=0.7.4;\r\n\r\ncontract TravelDoc {\r\n    struct user {\r\n        uint userId;\r\n        string name;\r\n        string dob;\r\n    }\r\n\r\n    struct doc_driving_dl {\r\n        string dochash;\r\n        string id;\r\n        string validity;\r\n        bool valid;\r\n    }\r\n\r\n    struct doc_rc {\r\n        string dochash;\r\n        string id;\r\n        string validity;\r\n        string regDate;\r\n        string chassisNo;\r\n        string engineNo;\r\n        string model;\r\n        string seat;\r\n        bool valid;\r\n    }\r\n\r\n    struct doc_insurance {\r\n        string dochash;\r\n        string id;\r\n        string validity;\r\n        bool valid;\r\n    }\r\n\r\n    struct doc_puc {\r\n        string dochash;\r\n        string id;\r\n        string validity;\r\n        bool valid;\r\n    }\r\n\r\n    event dladded(bool status);\r\n    event rcadded(bool status);\r\n    event pucadded(bool status);\r\n    event insuranceadded(bool status);\r\n\r\n    mapping(address => uint) users;\r\n    mapping(uint => doc_driving_dl) doc_array_driving_dl; \r\n    mapping(uint => doc_rc) doc_array_rc;\r\n    mapping(uint => doc_insurance) doc_array_insurance;\r\n    mapping(uint => doc_puc) doc_array_puc;\r\n    mapping(uint => user) user_detail_array;\r\n    mapping(uint => bool) public verified;\r\n\r\n    uint total_user_count;\r\n\r\n    function registerUser(string memory name,string memory dob) public returns(uint id) {\r\n        total_user_count++;\r\n        users[msg.sender]=total_user_count;\r\n        user_detail_array[total_user_count] = user(total_user_count,name,dob);\r\n        verified[total_user_count] = false;\r\n        return total_user_count;\r\n    }\r\n\r\n     function testcontract() public pure returns(string memory){\r\n        return \"Contract Connected\";\r\n    }\r\n\r\n    function getId() public view returns(uint id) {\r\n            id = users[msg.sender];\r\n            return id;\r\n    }\r\n\r\n    function add_rc( string memory _dochash,\r\n        string memory _id,\r\n        string memory _validity,\r\n        string memory _regDate,\r\n        string memory _chassisNo,\r\n        string memory _engineNo,\r\n        string memory _model,\r\n        string memory _seat) public returns(bool ok) {\r\n            doc_array_rc[users[msg.sender]] = doc_rc(_dochash,_id,_validity,_regDate,_chassisNo,_engineNo,_model,_seat,true);\r\n            emit rcadded(true);\r\n            return true;\r\n        }\r\n\r\n    function add_driving(string memory _dochash,\r\n        string memory _id,\r\n        string memory _validity) public returns(bool ok) {\r\n            doc_array_driving_dl[users[msg.sender]] = doc_driving_dl(_dochash,_id,_validity,true);\r\n            emit dladded(true);\r\n            return true;\r\n        } \r\n\r\n    function add_puc( string memory _dochash,\r\n        string memory _id,\r\n        string memory _validity) public returns(bool ok) {\r\n            doc_array_puc[users[msg.sender]] = doc_puc(_dochash,_id,_validity,true);\r\n            emit pucadded(true);\r\n            return true;\r\n        }\r\n\r\n    function add_insurance( string memory _dochash,\r\n        string memory _id,\r\n        string memory _validity) public returns(bool ok) {\r\n            doc_array_insurance[users[msg.sender]] = doc_insurance(_dochash,_id,_validity,true);\r\n            emit insuranceadded(true);\r\n            return true;\r\n        }\r\n\r\n    function setVerified() public returns(bool ok) {\r\n        if(doc_array_driving_dl[users[msg.sender]].valid == true && \r\n           doc_array_insurance[users[msg.sender]].valid == true && \r\n           doc_array_rc[users[msg.sender]].valid == true && \r\n           doc_array_puc[users[msg.sender]].valid == true \r\n        ) {\r\n            verified[users[msg.sender]] = true;\r\n            return true;\r\n        } else {\r\n            return false;\r\n        }\r\n    }\r\n\r\n    function verify() public view returns(bool ok) {\r\n        return verified[users[msg.sender]];\r\n    }\r\n\r\n\r\n    function get_user_details(uint id) public view returns(uint ,string memory, string memory) {\r\n        user storage u = user_detail_array[id];\r\n        return (u.userId,u.name,u.dob);\r\n    }\r\n\r\n    function get_rc_details(uint id) public view returns(string memory, string memory, string memory) {\r\n        doc_rc storage u = doc_array_rc[id];\r\n        return (u.dochash,u.id,u.validity);\r\n    }\r\n\r\n    function get_puc_details(uint id) public view returns(string memory, string memory, string memory) {\r\n        doc_puc storage u = doc_array_puc[id];\r\n        return (u.dochash,u.id,u.validity);\r\n    }\r\n\r\n    function get_insurance_details(uint id) public view returns(string memory,string memory, string memory) {\r\n        doc_insurance storage u = doc_array_insurance[id];\r\n        return (u.dochash,u.id,u.validity);\r\n    }\r\n\r\n    function get_dl_details(uint id) public view returns(string memory, string memory, string memory) {\r\n        doc_driving_dl storage u = doc_array_driving_dl[id];\r\n        return (u.dochash,u.id,u.validity);\r\n    }\r\n\r\n}",
  "sourcePath": "H:\\Ata\\SIH\\SIH-2022\\backend\\contracts\\TravelDoc.sol",
  "compiler": {
    "name": "solc",
    "version": "0.7.4+commit.3f05b770.Emscripten.clang"
  },
  "schemaVersion": "3.4.6",
  "updatedAt": "2022-03-23T20:02:52.207Z",
  "networkType": "ethereum",
  "devdoc": {
    "kind": "dev",
    "methods": {},
    "version": 1
  },
  "userdoc": {
    "kind": "user",
    "methods": {},
    "version": 1
  }
}